:100000000C942A000C943F000C943F000C943F0089
:100010000C943F000C943F000C943F000C943F0064
:100020000C943F000C943F000C943F000C943F0054
:100030000C943F000C943F000C943F000C943F0044
:100040000C943F000C943F000C943F000C943F0034
:100050000C943F0011241FBECFE5D8E0DEBFCDBF1A
:1000600010E0A0E6B0E0E2EBF0E002C005900D92F7
:10007000A236B107D9F70E9441000C9457000C94A6
:10008000000080E881BB82BB80E69AEE0197F1F721
:1000900012BA80E197E228EC30E0F9013197F1F7EC
:1000A0000197D9F7E0916000F09161000995F8940B
:0200B000FFCF80
:0200B200003F0D

:107E0000F8946FE56DBF68E06EBF22243324A89517
:107E100061B560617FE061BD63FD71BD909A919A2B
:107E2000899A21E030EA66E0F101EF01F101019762
:107E300060408099E1F7D9F121973496C0F1809B99
:107E4000FBCF0F2EC5950694E9F72397269668F782
:107E5000EA35F20550F3F797F695E7952F01CAE05A
:107E6000E2ECFFE70590002031F076D00616D1F362
:107E7000CA95E9F0F5CF66EA89D06ED0E1F76AEAF3
:107E800085D06AD0F1F768D0F1F3F101E89464305D
:107E900098F061F1653079F06730F9F067EA80F7C2
:107EA0005BD05AD0672859F331016BEAE9CF21BA88
:107EB00022BA0C94FF3EFFCFE8ECFFE7C0E0EC0FE6
:107EC000F21DC4916150D8F768EA60D06591C15045
:107ED000E0F7D5CF0590061268943ED0D9F73CD094
:107EE0006058C1F716F3CBCF69EA50D06894A0E68A
:107EF000B0E0D4E031D031F42FD0605819F48EF0D6
:107F0000689405C0E8946D93A036BD0799F7A0E684
:107F1000B0E008D050F6E058FF4FA036BD07C9F7D3
:107F20001EF7ADCFE0306CE7F607A8F40D901D907A
:107F300061E00BD032966E2F6E77C1F7E058F040BB
:107F400063E003D065E001D061E167BFE89567B702
:107F500060FDFDCF08940895A895809BFDCF809982
:107F6000FECF78E0C2019695879523D021D0669503
:107F70008099606867FD62267694679408F46226AB
:107F800008F473267A9591F7653A089511D091987F
:107F9000749179E0609500C000C00AD0669518F42D
:107FA0000000919802C0919A00C07A95A1F70895B7
:107FB000C2010497F0F78D3F18F011F08F3F01F0E8
:107FC0000895477572550000030201030400041E62
:107FD000950204007C007FB7F894613860EF21F4CB
:107FE000A1DF60E808F061EF7FBF089500000000A6
:107FF0000000000000000000000000000000EBCFC7

:00000001FF
