:100000000C942A000C943F000C943F000C943F0089
:100010000C943F000C943F000C943F000C943F0064
:100020000C943F000C943F000C943F000C943F0054
:100030000C943F000C943F000C943F000C943F0044
:100040000C943F000C943F000C943F000C943F0034
:100050000C943F0011241FBECFE5D8E0DEBFCDBF1A
:1000600010E0A0E6B0E0E2EBF0E002C005900D92F7
:10007000A236B107D9F70E9441000C9457000C94A6
:10008000000080E881BB82BB80E69AEE0197F1F721
:1000900012BA80E197E228EC30E0F9013197F1F7EC
:1000A0000197D9F7E0916000F09161000995F8940B
:0200B000FFCF80
:0200B200003F0D

:107E0000F8946FE56DBF68E06EBF22243324909A2A
:107E1000919A899A21E030EA66E0F101EF01F101DF
:107E2000019760408099E1F7D9F121973496C0F12C
:107E3000809BFBCF0F2EC5950694E9F723972696D6
:107E400068F7EA35F20550F3F797F695E7952F01B5
:107E5000CAE0E0ECFFE70590002031F07DD0061687
:107E6000D1F3CA95E9F0F5CF66EA8FD075D0E1F786
:107E70006AEA8BD071D0F1F76FD0F1F3F101E89499
:107E80006430D0F099F16530B1F0673031F167EAD4
:107E900080F762D061D0672859F331016BEAE9CFEE
:107EA00021BA22BA0C94FF3EA89561B560617FE0CB
:107EB00061BD63FD71BDFFCFE6ECFFE7C0E0EC0FF5
:107EC000F21DC4916150D8F768EA5FD06591C15046
:107ED000E0F7CECF0590061268943ED0D9F73CD09B
:107EE0006058C1F7DEF2C4CF69EA4FD06894A0E6CB
:107EF000B0E0D0E031D031F42FD0605819F48EF0DA
:107F0000689405C0E8946D93A03EBD0799F7A0E67C
:107F1000B0E008D018F6E058FF4FA03EBD07C9F703
:107F20001EF7A6CFE0306CE7F607A8F40D901D9081
:107F300061E00BD032966E2F6E77C1F7E058F040BB
:107F400063E003D065E001D061E167BFE89567B702
:107F500060FDFDCF08940895809BFECF8099FECFF1
:107F600078E0C2019695879523D021D066958099B7
:107F7000606867FD62267694679408F4622608F4C8
:107F800073267A9591F7653A089511D09198749176
:107F900079E0609500C000C00AD0669518F4000032
:107FA000919802C0919A00C07A95A1F70895C201F4
:107FB0000497F0F78D3F18F011F08F3F01F008950E
:107FC000477572550000030201030080041E9502EC
:107FD00004007C007FB7F894613860EF21F4A2DFE1
:107FE00060E808F061EF7FBF089500000000000026
:107FF0000000000000000000000000000000EACFC8

:00000001FF
